{
  "_format": "hh-sol-artifact-1",
  "contractName": "Voting",
  "sourceName": "contracts/Voting.sol",
  "abi": [
    {
      "inputs": [
        {
          "internalType": "string[]",
          "name": "proposalNames",
          "type": "string[]"
        },
        {
          "internalType": "uint256",
          "name": "_maxVoters",
          "type": "uint256"
        }
      ],
      "stateMutability": "nonpayable",
      "type": "constructor"
    },
    {
      "inputs": [],
      "name": "admin",
      "outputs": [
        {
          "internalType": "address",
          "name": "",
          "type": "address"
        }
      ],
      "stateMutability": "view",
      "type": "function"
    },
    {
      "inputs": [
        {
          "internalType": "uint256",
          "name": "index",
          "type": "uint256"
        }
      ],
      "name": "getProposal",
      "outputs": [
        {
          "internalType": "string",
          "name": "name",
          "type": "string"
        },
        {
          "internalType": "uint256",
          "name": "voteCount",
          "type": "uint256"
        }
      ],
      "stateMutability": "view",
      "type": "function"
    },
    {
      "inputs": [],
      "name": "getProposalCount",
      "outputs": [
        {
          "internalType": "uint256",
          "name": "",
          "type": "uint256"
        }
      ],
      "stateMutability": "view",
      "type": "function"
    },
    {
      "inputs": [],
      "name": "getWinningProposal",
      "outputs": [
        {
          "internalType": "uint256",
          "name": "winningIndex",
          "type": "uint256"
        }
      ],
      "stateMutability": "view",
      "type": "function"
    },
    {
      "inputs": [
        {
          "internalType": "address",
          "name": "user",
          "type": "address"
        }
      ],
      "name": "hasVoted",
      "outputs": [
        {
          "internalType": "bool",
          "name": "",
          "type": "bool"
        }
      ],
      "stateMutability": "view",
      "type": "function"
    },
    {
      "inputs": [
        {
          "internalType": "address",
          "name": "user",
          "type": "address"
        }
      ],
      "name": "isRegistered",
      "outputs": [
        {
          "internalType": "bool",
          "name": "",
          "type": "bool"
        }
      ],
      "stateMutability": "view",
      "type": "function"
    },
    {
      "inputs": [],
      "name": "maxVoters",
      "outputs": [
        {
          "internalType": "uint256",
          "name": "",
          "type": "uint256"
        }
      ],
      "stateMutability": "view",
      "type": "function"
    },
    {
      "inputs": [
        {
          "internalType": "uint256",
          "name": "",
          "type": "uint256"
        }
      ],
      "name": "proposals",
      "outputs": [
        {
          "internalType": "string",
          "name": "name",
          "type": "string"
        },
        {
          "internalType": "uint256",
          "name": "voteCount",
          "type": "uint256"
        }
      ],
      "stateMutability": "view",
      "type": "function"
    },
    {
      "inputs": [],
      "name": "register",
      "outputs": [],
      "stateMutability": "nonpayable",
      "type": "function"
    },
    {
      "inputs": [],
      "name": "registeredVoters",
      "outputs": [
        {
          "internalType": "uint256",
          "name": "",
          "type": "uint256"
        }
      ],
      "stateMutability": "view",
      "type": "function"
    },
    {
      "inputs": [
        {
          "internalType": "uint256",
          "name": "proposalIndex",
          "type": "uint256"
        }
      ],
      "name": "vote",
      "outputs": [],
      "stateMutability": "nonpayable",
      "type": "function"
    },
    {
      "inputs": [
        {
          "internalType": "address",
          "name": "",
          "type": "address"
        }
      ],
      "name": "voters",
      "outputs": [
        {
          "internalType": "bool",
          "name": "isRegistered",
          "type": "bool"
        },
        {
          "internalType": "bool",
          "name": "hasVoted",
          "type": "bool"
        }
      ],
      "stateMutability": "view",
      "type": "function"
    }
  ],
  "bytecode": "0x608060405234801561001057600080fd5b506040516115fe3803806115fe833981810160405281019061003291906103a8565b336000806101000a81548173ffffffffffffffffffffffffffffffffffffffff021916908373ffffffffffffffffffffffffffffffffffffffff1602179055508060018190555060005b825181101561010f57600460405180604001604052808584815181106100a5576100a4610404565b5b602002602001015181526020016000815250908060018154018082558091505060019003906000526020600020906002020160009091909190915060008201518160000190816100f5919061064a565b50602082015181600101555050808060010191505061007c565b50505061071c565b6000604051905090565b600080fd5b600080fd5b600080fd5b6000601f19601f8301169050919050565b7f4e487b7100000000000000000000000000000000000000000000000000000000600052604160045260246000fd5b61017982610130565b810181811067ffffffffffffffff8211171561019857610197610141565b5b80604052505050565b60006101ab610117565b90506101b78282610170565b919050565b600067ffffffffffffffff8211156101d7576101d6610141565b5b602082029050602081019050919050565b600080fd5b600080fd5b600067ffffffffffffffff82111561020d5761020c610141565b5b61021682610130565b9050602081019050919050565b60005b83811015610241578082015181840152602081019050610226565b60008484015250505050565b600061026061025b846101f2565b6101a1565b90508281526020810184848401111561027c5761027b6101ed565b5b610287848285610223565b509392505050565b600082601f8301126102a4576102a361012b565b5b81516102b484826020860161024d565b91505092915050565b60006102d06102cb846101bc565b6101a1565b905080838252602082019050602084028301858111156102f3576102f26101e8565b5b835b8181101561033a57805167ffffffffffffffff8111156103185761031761012b565b5b808601610325898261028f565b855260208501945050506020810190506102f5565b5050509392505050565b600082601f8301126103595761035861012b565b5b81516103698482602086016102bd565b91505092915050565b6000819050919050565b61038581610372565b811461039057600080fd5b50565b6000815190506103a28161037c565b92915050565b600080604083850312156103bf576103be610121565b5b600083015167ffffffffffffffff8111156103dd576103dc610126565b5b6103e985828601610344565b92505060206103fa85828601610393565b9150509250929050565b7f4e487b7100000000000000000000000000000000000000000000000000000000600052603260045260246000fd5b600081519050919050565b7f4e487b7100000000000000000000000000000000000000000000000000000000600052602260045260246000fd5b6000600282049050600182168061048557607f821691505b6020821081036104985761049761043e565b5b50919050565b60008190508160005260206000209050919050565b60006020601f8301049050919050565b600082821b905092915050565b6000600883026105007fffffffffffffffffffffffffffffffffffffffffffffffffffffffffffffffff826104c3565b61050a86836104c3565b95508019841693508086168417925050509392505050565b6000819050919050565b600061054761054261053d84610372565b610522565b610372565b9050919050565b6000819050919050565b6105618361052c565b61057561056d8261054e565b8484546104d0565b825550505050565b600090565b61058a61057d565b610595818484610558565b505050565b5b818110156105b9576105ae600082610582565b60018101905061059b565b5050565b601f8211156105fe576105cf8161049e565b6105d8846104b3565b810160208510156105e7578190505b6105fb6105f3856104b3565b83018261059a565b50505b505050565b600082821c905092915050565b600061062160001984600802610603565b1980831691505092915050565b600061063a8383610610565b9150826002028217905092915050565b61065382610433565b67ffffffffffffffff81111561066c5761066b610141565b5b610676825461046d565b6106818282856105bd565b600060209050601f8311600181146106b457600084156106a2578287015190505b6106ac858261062e565b865550610714565b601f1984166106c28661049e565b60005b828110156106ea578489015182556001820191506020850194506020810190506106c5565b868310156107075784890151610703601f891682610610565b8355505b6001600288020188555050505b505050505050565b610ed38061072b6000396000f3fe608060405234801561001057600080fd5b50600436106100b45760003560e01c8063bfb161d711610071578063bfb161d71461018f578063c08cc02d146101ad578063c3c5a547146101cb578063c7f758a8146101fb578063d5e50a631461022c578063f851a4401461024a576100b4565b80630121b93f146100b9578063013cf08b146100d557806309eef43e146101065780631aa3a00814610136578063a3ec138d14610140578063a513462014610171575b600080fd5b6100d360048036038101906100ce9190610950565b610268565b005b6100ef60048036038101906100ea9190610950565b6103f1565b6040516100fd929190610a1c565b60405180910390f35b610120600480360381019061011b9190610aaa565b6104ad565b60405161012d9190610af2565b60405180910390f35b61013e610506565b005b61015a60048036038101906101559190610aaa565b610693565b604051610168929190610b0d565b60405180910390f35b6101796106d1565b6040516101869190610b36565b60405180910390f35b610197610753565b6040516101a49190610b36565b60405180910390f35b6101b5610759565b6040516101c29190610b36565b60405180910390f35b6101e560048036038101906101e09190610aaa565b610766565b6040516101f29190610af2565b60405180910390f35b61021560048036038101906102109190610950565b6107bf565b604051610223929190610a1c565b60405180910390f35b6102346108eb565b6040516102419190610b36565b60405180910390f35b6102526108f1565b60405161025f9190610b60565b60405180910390f35b6000600360003373ffffffffffffffffffffffffffffffffffffffff1673ffffffffffffffffffffffffffffffffffffffff16815260200190815260200160002090508060000160009054906101000a900460ff166102fc576040517f08c379a00000000000000000000000000000000000000000000000000000000081526004016102f390610bc7565b60405180910390fd5b8060000160019054906101000a900460ff161561034e576040517f08c379a000000000000000000000000000000000000000000000000000000000815260040161034590610c33565b60405180910390fd5b6004805490508210610395576040517f08c379a000000000000000000000000000000000000000000000000000000000815260040161038c90610c9f565b60405180910390fd5b60018160000160016101000a81548160ff021916908315150217905550600482815481106103c6576103c5610cbf565b5b906000526020600020906002020160010160008154809291906103e890610d1d565b91905055505050565b6004818154811061040157600080fd5b906000526020600020906002020160009150905080600001805461042490610d94565b80601f016020809104026020016040519081016040528092919081815260200182805461045090610d94565b801561049d5780601f106104725761010080835404028352916020019161049d565b820191906000526020600020905b81548152906001019060200180831161048057829003601f168201915b5050505050908060010154905082565b6000600360008373ffffffffffffffffffffffffffffffffffffffff1673ffffffffffffffffffffffffffffffffffffffff16815260200190815260200160002060000160019054906101000a900460ff169050919050565b6001546002541061054c576040517f08c379a000000000000000000000000000000000000000000000000000000000815260040161054390610e11565b60405180910390fd5b600360003373ffffffffffffffffffffffffffffffffffffffff1673ffffffffffffffffffffffffffffffffffffffff16815260200190815260200160002060000160009054906101000a900460ff16156105dc576040517f08c379a00000000000000000000000000000000000000000000000000000000081526004016105d390610e7d565b60405180910390fd5b604051806040016040528060011515815260200160001515815250600360003373ffffffffffffffffffffffffffffffffffffffff1673ffffffffffffffffffffffffffffffffffffffff16815260200190815260200160002060008201518160000160006101000a81548160ff02191690831515021790555060208201518160000160016101000a81548160ff0219169083151502179055509050506002600081548092919061068c90610d1d565b9190505550565b60036020528060005260406000206000915090508060000160009054906101000a900460ff16908060000160019054906101000a900460ff16905082565b6000806000905060005b60048054905081101561074e5781600482815481106106fd576106fc610cbf565b5b9060005260206000209060020201600101541115610741576004818154811061072957610728610cbf565b5b90600052602060002090600202016001015491508092505b80806001019150506106db565b505090565b60025481565b6000600480549050905090565b6000600360008373ffffffffffffffffffffffffffffffffffffffff1673ffffffffffffffffffffffffffffffffffffffff16815260200190815260200160002060000160009054906101000a900460ff169050919050565b60606000600480549050831061080a576040517f08c379a000000000000000000000000000000000000000000000000000000000815260040161080190610c9f565b60405180910390fd5b6000600484815481106108205761081f610cbf565b5b906000526020600020906002020160405180604001604052908160008201805461084990610d94565b80601f016020809104026020016040519081016040528092919081815260200182805461087590610d94565b80156108c25780601f10610897576101008083540402835291602001916108c2565b820191906000526020600020905b8154815290600101906020018083116108a557829003601f168201915b505050505081526020016001820154815250509050806000015181602001519250925050915091565b60015481565b60008054906101000a900473ffffffffffffffffffffffffffffffffffffffff1681565b600080fd5b6000819050919050565b61092d8161091a565b811461093857600080fd5b50565b60008135905061094a81610924565b92915050565b60006020828403121561096657610965610915565b5b60006109748482850161093b565b91505092915050565b600081519050919050565b600082825260208201905092915050565b60005b838110156109b757808201518184015260208101905061099c565b60008484015250505050565b6000601f19601f8301169050919050565b60006109df8261097d565b6109e98185610988565b93506109f9818560208601610999565b610a02816109c3565b840191505092915050565b610a168161091a565b82525050565b60006040820190508181036000830152610a3681856109d4565b9050610a456020830184610a0d565b9392505050565b600073ffffffffffffffffffffffffffffffffffffffff82169050919050565b6000610a7782610a4c565b9050919050565b610a8781610a6c565b8114610a9257600080fd5b50565b600081359050610aa481610a7e565b92915050565b600060208284031215610ac057610abf610915565b5b6000610ace84828501610a95565b91505092915050565b60008115159050919050565b610aec81610ad7565b82525050565b6000602082019050610b076000830184610ae3565b92915050565b6000604082019050610b226000830185610ae3565b610b2f6020830184610ae3565b9392505050565b6000602082019050610b4b6000830184610a0d565b92915050565b610b5a81610a6c565b82525050565b6000602082019050610b756000830184610b51565b92915050565b7f4e6f6e20696e7363726974000000000000000000000000000000000000000000600082015250565b6000610bb1600b83610988565b9150610bbc82610b7b565b602082019050919050565b60006020820190508181036000830152610be081610ba4565b9050919050565b7f412064656a6120766f7465000000000000000000000000000000000000000000600082015250565b6000610c1d600b83610988565b9150610c2882610be7565b602082019050919050565b60006020820190508181036000830152610c4c81610c10565b9050919050565b7f496e64657820696e76616c696465000000000000000000000000000000000000600082015250565b6000610c89600e83610988565b9150610c9482610c53565b602082019050919050565b60006020820190508181036000830152610cb881610c7c565b9050919050565b7f4e487b7100000000000000000000000000000000000000000000000000000000600052603260045260246000fd5b7f4e487b7100000000000000000000000000000000000000000000000000000000600052601160045260246000fd5b6000610d288261091a565b91507fffffffffffffffffffffffffffffffffffffffffffffffffffffffffffffffff8203610d5a57610d59610cee565b5b600182019050919050565b7f4e487b7100000000000000000000000000000000000000000000000000000000600052602260045260246000fd5b60006002820490506001821680610dac57607f821691505b602082108103610dbf57610dbe610d65565b5b50919050565b7f4c696d6974652061747465696e74650000000000000000000000000000000000600082015250565b6000610dfb600f83610988565b9150610e0682610dc5565b602082019050919050565b60006020820190508181036000830152610e2a81610dee565b9050919050565b7f44656a6120696e73637269740000000000000000000000000000000000000000600082015250565b6000610e67600c83610988565b9150610e7282610e31565b602082019050919050565b60006020820190508181036000830152610e9681610e5a565b905091905056fea2646970667358221220d054b2f60664fb7d6947a45b8341a63d704c930bbf958e9ae706150bdab09ba964736f6c634300081c0033",
  "linkReferences": {},
  "deployedLinkReferences": {}
}