{
  "_format": "hh-sol-artifact-1",
  "contractName": "Voting",
  "sourceName": "contracts/Voting.sol",
  "abi": [
    {
      "inputs": [
        {
          "internalType": "bytes32[]",
          "name": "proposalNames",
          "type": "bytes32[]"
        },
        {
          "internalType": "uint256",
          "name": "_maxVoters",
          "type": "uint256"
        }
      ],
      "stateMutability": "nonpayable",
      "type": "constructor"
    },
    {
      "inputs": [
        {
          "internalType": "uint256",
          "name": "index",
          "type": "uint256"
        }
      ],
      "name": "getProposal",
      "outputs": [
        {
          "components": [
            {
              "internalType": "bytes32",
              "name": "name",
              "type": "bytes32"
            },
            {
              "internalType": "uint256",
              "name": "voteCount",
              "type": "uint256"
            }
          ],
          "internalType": "struct Voting.Proposal",
          "name": "",
          "type": "tuple"
        }
      ],
      "stateMutability": "view",
      "type": "function"
    },
    {
      "inputs": [],
      "name": "getProposalCount",
      "outputs": [
        {
          "internalType": "uint256",
          "name": "",
          "type": "uint256"
        }
      ],
      "stateMutability": "view",
      "type": "function"
    },
    {
      "inputs": [],
      "name": "getWinningProposal",
      "outputs": [
        {
          "internalType": "uint256",
          "name": "winningProposalIndex",
          "type": "uint256"
        }
      ],
      "stateMutability": "view",
      "type": "function"
    },
    {
      "inputs": [
        {
          "internalType": "address",
          "name": "addr",
          "type": "address"
        }
      ],
      "name": "hasVoted",
      "outputs": [
        {
          "internalType": "bool",
          "name": "",
          "type": "bool"
        }
      ],
      "stateMutability": "view",
      "type": "function"
    },
    {
      "inputs": [
        {
          "internalType": "address",
          "name": "addr",
          "type": "address"
        }
      ],
      "name": "isRegistered",
      "outputs": [
        {
          "internalType": "bool",
          "name": "",
          "type": "bool"
        }
      ],
      "stateMutability": "view",
      "type": "function"
    },
    {
      "inputs": [],
      "name": "maxVoters",
      "outputs": [
        {
          "internalType": "uint256",
          "name": "",
          "type": "uint256"
        }
      ],
      "stateMutability": "view",
      "type": "function"
    },
    {
      "inputs": [],
      "name": "owner",
      "outputs": [
        {
          "internalType": "address",
          "name": "",
          "type": "address"
        }
      ],
      "stateMutability": "view",
      "type": "function"
    },
    {
      "inputs": [
        {
          "internalType": "uint256",
          "name": "",
          "type": "uint256"
        }
      ],
      "name": "proposals",
      "outputs": [
        {
          "internalType": "bytes32",
          "name": "name",
          "type": "bytes32"
        },
        {
          "internalType": "uint256",
          "name": "voteCount",
          "type": "uint256"
        }
      ],
      "stateMutability": "view",
      "type": "function"
    },
    {
      "inputs": [],
      "name": "register",
      "outputs": [],
      "stateMutability": "nonpayable",
      "type": "function"
    },
    {
      "inputs": [],
      "name": "registeredVoterCount",
      "outputs": [
        {
          "internalType": "uint256",
          "name": "",
          "type": "uint256"
        }
      ],
      "stateMutability": "view",
      "type": "function"
    },
    {
      "inputs": [
        {
          "internalType": "uint256",
          "name": "proposalIndex",
          "type": "uint256"
        }
      ],
      "name": "vote",
      "outputs": [],
      "stateMutability": "nonpayable",
      "type": "function"
    },
    {
      "inputs": [
        {
          "internalType": "address",
          "name": "",
          "type": "address"
        }
      ],
      "name": "voters",
      "outputs": [
        {
          "internalType": "bool",
          "name": "isRegistered",
          "type": "bool"
        },
        {
          "internalType": "bool",
          "name": "hasVoted",
          "type": "bool"
        }
      ],
      "stateMutability": "view",
      "type": "function"
    }
  ],
  "bytecode": "0x60806040523480156200001157600080fd5b506040516200121d3803806200121d83398181016040528101906200003791906200031d565b336000806101000a81548173ffffffffffffffffffffffffffffffffffffffff021916908373ffffffffffffffffffffffffffffffffffffffff1602179055508060018190555060005b8251811015620001155760036040518060400160405280858481518110620000ae57620000ad62000383565b5b60200260200101518152602001600081525090806001815401808255809150506001900390600052602060002090600202016000909190919091506000820151816000015560208201518160010155505080806200010c90620003e1565b91505062000081565b5050506200042e565b6000604051905090565b600080fd5b600080fd5b600080fd5b6000601f19601f8301169050919050565b7f4e487b7100000000000000000000000000000000000000000000000000000000600052604160045260246000fd5b620001828262000137565b810181811067ffffffffffffffff82111715620001a457620001a362000148565b5b80604052505050565b6000620001b96200011e565b9050620001c7828262000177565b919050565b600067ffffffffffffffff821115620001ea57620001e962000148565b5b602082029050602081019050919050565b600080fd5b6000819050919050565b620002158162000200565b81146200022157600080fd5b50565b60008151905062000235816200020a565b92915050565b6000620002526200024c84620001cc565b620001ad565b90508083825260208201905060208402830185811115620002785762000277620001fb565b5b835b81811015620002a5578062000290888262000224565b8452602084019350506020810190506200027a565b5050509392505050565b600082601f830112620002c757620002c662000132565b5b8151620002d98482602086016200023b565b91505092915050565b6000819050919050565b620002f781620002e2565b81146200030357600080fd5b50565b6000815190506200031781620002ec565b92915050565b6000806040838503121562000337576200033662000128565b5b600083015167ffffffffffffffff8111156200035857620003576200012d565b5b6200036685828601620002af565b9250506020620003798582860162000306565b9150509250929050565b7f4e487b7100000000000000000000000000000000000000000000000000000000600052603260045260246000fd5b7f4e487b7100000000000000000000000000000000000000000000000000000000600052601160045260246000fd5b6000620003ee82620002e2565b91507fffffffffffffffffffffffffffffffffffffffffffffffffffffffffffffffff8203620004235762000422620003b2565b5b600182019050919050565b610ddf806200043e6000396000f3fe608060405234801561001057600080fd5b50600436106100b45760003560e01c8063a3ec138d11610071578063a3ec138d1461017c578063a5134620146101ad578063c08cc02d146101cb578063c3c5a547146101e9578063c7f758a814610219578063d5e50a6314610249576100b4565b80630121b93f146100b9578063013cf08b146100d5578063077ed31c1461010657806309eef43e146101245780631aa3a008146101545780638da5cb5b1461015e575b600080fd5b6100d360048036038101906100ce9190610855565b610267565b005b6100ef60048036038101906100ea9190610855565b6103f0565b6040516100fd9291906108aa565b60405180910390f35b61010e610424565b60405161011b91906108d3565b60405180910390f35b61013e6004803603810190610139919061094c565b61042a565b60405161014b9190610994565b60405180910390f35b61015c610483565b005b610166610610565b60405161017391906109be565b60405180910390f35b6101966004803603810190610191919061094c565b610634565b6040516101a49291906109d9565b60405180910390f35b6101b5610672565b6040516101c291906108d3565b60405180910390f35b6101d36106fa565b6040516101e091906108d3565b60405180910390f35b61020360048036038101906101fe919061094c565b610707565b6040516102109190610994565b60405180910390f35b610233600480360381019061022e9190610855565b610760565b6040516102409190610a4f565b60405180910390f35b6102516107f7565b60405161025e91906108d3565b60405180910390f35b6000600460003373ffffffffffffffffffffffffffffffffffffffff1673ffffffffffffffffffffffffffffffffffffffff16815260200190815260200160002090508060000160009054906101000a900460ff166102fb576040517f08c379a00000000000000000000000000000000000000000000000000000000081526004016102f290610ac7565b60405180910390fd5b8060000160019054906101000a900460ff161561034d576040517f08c379a000000000000000000000000000000000000000000000000000000000815260040161034490610b33565b60405180910390fd5b6003805490508210610394576040517f08c379a000000000000000000000000000000000000000000000000000000000815260040161038b90610b9f565b60405180910390fd5b60018160000160016101000a81548160ff021916908315150217905550600382815481106103c5576103c4610bbf565b5b906000526020600020906002020160010160008154809291906103e790610c1d565b91905055505050565b6003818154811061040057600080fd5b90600052602060002090600202016000915090508060000154908060010154905082565b60025481565b6000600460008373ffffffffffffffffffffffffffffffffffffffff1673ffffffffffffffffffffffffffffffffffffffff16815260200190815260200160002060000160019054906101000a900460ff169050919050565b600460003373ffffffffffffffffffffffffffffffffffffffff1673ffffffffffffffffffffffffffffffffffffffff16815260200190815260200160002060000160009054906101000a900460ff1615610513576040517f08c379a000000000000000000000000000000000000000000000000000000000815260040161050a90610cb1565b60405180910390fd5b60015460025410610559576040517f08c379a000000000000000000000000000000000000000000000000000000000815260040161055090610d1d565b60405180910390fd5b604051806040016040528060011515815260200160001515815250600460003373ffffffffffffffffffffffffffffffffffffffff1673ffffffffffffffffffffffffffffffffffffffff16815260200190815260200160002060008201518160000160006101000a81548160ff02191690831515021790555060208201518160000160016101000a81548160ff0219169083151502179055509050506002600081548092919061060990610c1d565b9190505550565b60008054906101000a900473ffffffffffffffffffffffffffffffffffffffff1681565b60046020528060005260406000206000915090508060000160009054906101000a900460ff16908060000160019054906101000a900460ff16905082565b6000806000905060005b6003805490508110156106f557816003828154811061069e5761069d610bbf565b5b90600052602060002090600202016001015411156106e257600381815481106106ca576106c9610bbf565b5b90600052602060002090600202016001015491508092505b80806106ed90610c1d565b91505061067c565b505090565b6000600380549050905090565b6000600460008373ffffffffffffffffffffffffffffffffffffffff1673ffffffffffffffffffffffffffffffffffffffff16815260200190815260200160002060000160009054906101000a900460ff169050919050565b6107686107fd565b60038054905082106107af576040517f08c379a00000000000000000000000000000000000000000000000000000000081526004016107a690610d89565b60405180910390fd5b600382815481106107c3576107c2610bbf565b5b9060005260206000209060020201604051806040016040529081600082015481526020016001820154815250509050919050565b60015481565b604051806040016040528060008019168152602001600081525090565b600080fd5b6000819050919050565b6108328161081f565b811461083d57600080fd5b50565b60008135905061084f81610829565b92915050565b60006020828403121561086b5761086a61081a565b5b600061087984828501610840565b91505092915050565b6000819050919050565b61089581610882565b82525050565b6108a48161081f565b82525050565b60006040820190506108bf600083018561088c565b6108cc602083018461089b565b9392505050565b60006020820190506108e8600083018461089b565b92915050565b600073ffffffffffffffffffffffffffffffffffffffff82169050919050565b6000610919826108ee565b9050919050565b6109298161090e565b811461093457600080fd5b50565b60008135905061094681610920565b92915050565b6000602082840312156109625761096161081a565b5b600061097084828501610937565b91505092915050565b60008115159050919050565b61098e81610979565b82525050565b60006020820190506109a96000830184610985565b92915050565b6109b88161090e565b82525050565b60006020820190506109d360008301846109af565b92915050565b60006040820190506109ee6000830185610985565b6109fb6020830184610985565b9392505050565b610a0b81610882565b82525050565b610a1a8161081f565b82525050565b604082016000820151610a366000850182610a02565b506020820151610a496020850182610a11565b50505050565b6000604082019050610a646000830184610a20565b92915050565b600082825260208201905092915050565b7f566f7573206e27657465732070617320696e73637269742e0000000000000000600082015250565b6000610ab1601883610a6a565b9150610abc82610a7b565b602082019050919050565b60006020820190508181036000830152610ae081610aa4565b9050919050565b7f566f7573206176657a2064656a6120766f74652e000000000000000000000000600082015250565b6000610b1d601483610a6a565b9150610b2882610ae7565b602082019050919050565b60006020820190508181036000830152610b4c81610b10565b9050919050565b7f50726f706f736974696f6e20696e76616c6964652e0000000000000000000000600082015250565b6000610b89601583610a6a565b9150610b9482610b53565b602082019050919050565b60006020820190508181036000830152610bb881610b7c565b9050919050565b7f4e487b7100000000000000000000000000000000000000000000000000000000600052603260045260246000fd5b7f4e487b7100000000000000000000000000000000000000000000000000000000600052601160045260246000fd5b6000610c288261081f565b91507fffffffffffffffffffffffffffffffffffffffffffffffffffffffffffffffff8203610c5a57610c59610bee565b5b600182019050919050565b7f44656a6120696e73637269742e00000000000000000000000000000000000000600082015250565b6000610c9b600d83610a6a565b9150610ca682610c65565b602082019050919050565b60006020820190508181036000830152610cca81610c8e565b9050919050565b7f4c696d697465206427696e736372697074696f6e732061747465696e74652e00600082015250565b6000610d07601f83610a6a565b9150610d1282610cd1565b602082019050919050565b60006020820190508181036000830152610d3681610cfa565b9050919050565b7f496e64657820696e76616c6964652e0000000000000000000000000000000000600082015250565b6000610d73600f83610a6a565b9150610d7e82610d3d565b602082019050919050565b60006020820190508181036000830152610da281610d66565b905091905056fea26469706673582212203ec88e329ebde86f5af912457e3121649961fd22c82fd1f11ff0b17c61fae4e664736f6c63430008140033",
  "linkReferences": {},
  "deployedLinkReferences": {}
}