{
  "_format": "hh-sol-artifact-1",
  "contractName": "Ballot",
  "sourceName": "contracts/Ballot.sol",
  "abi": [
    {
      "inputs": [
        {
          "internalType": "bytes32[]",
          "name": "proposalNames",
          "type": "bytes32[]"
        },
        {
          "internalType": "uint256",
          "name": "nbMaxVoter_",
          "type": "uint256"
        }
      ],
      "stateMutability": "nonpayable",
      "type": "constructor"
    },
    {
      "inputs": [],
      "name": "chairman",
      "outputs": [
        {
          "internalType": "address",
          "name": "",
          "type": "address"
        }
      ],
      "stateMutability": "view",
      "type": "function"
    },
    {
      "inputs": [],
      "name": "checkRegistered",
      "outputs": [
        {
          "internalType": "bool",
          "name": "",
          "type": "bool"
        }
      ],
      "stateMutability": "view",
      "type": "function"
    },
    {
      "inputs": [],
      "name": "checkVoted",
      "outputs": [
        {
          "internalType": "bool",
          "name": "",
          "type": "bool"
        }
      ],
      "stateMutability": "view",
      "type": "function"
    },
    {
      "inputs": [],
      "name": "getAllProposals",
      "outputs": [
        {
          "components": [
            {
              "internalType": "bytes32",
              "name": "name",
              "type": "bytes32"
            },
            {
              "internalType": "uint256",
              "name": "count",
              "type": "uint256"
            }
          ],
          "internalType": "struct Ballot.Proposal[]",
          "name": "",
          "type": "tuple[]"
        }
      ],
      "stateMutability": "view",
      "type": "function"
    },
    {
      "inputs": [],
      "name": "getMostVotedProposal",
      "outputs": [
        {
          "components": [
            {
              "internalType": "bytes32",
              "name": "name",
              "type": "bytes32"
            },
            {
              "internalType": "uint256",
              "name": "count",
              "type": "uint256"
            }
          ],
          "internalType": "struct Ballot.Proposal",
          "name": "proposal",
          "type": "tuple"
        }
      ],
      "stateMutability": "view",
      "type": "function"
    },
    {
      "inputs": [
        {
          "internalType": "address",
          "name": "voter",
          "type": "address"
        }
      ],
      "name": "giveRightToVote",
      "outputs": [],
      "stateMutability": "nonpayable",
      "type": "function"
    },
    {
      "inputs": [
        {
          "internalType": "uint256",
          "name": "",
          "type": "uint256"
        }
      ],
      "name": "proposals",
      "outputs": [
        {
          "internalType": "bytes32",
          "name": "name",
          "type": "bytes32"
        },
        {
          "internalType": "uint256",
          "name": "count",
          "type": "uint256"
        }
      ],
      "stateMutability": "view",
      "type": "function"
    },
    {
      "inputs": [],
      "name": "toggleOpen",
      "outputs": [],
      "stateMutability": "nonpayable",
      "type": "function"
    },
    {
      "inputs": [
        {
          "internalType": "uint256",
          "name": "proposal",
          "type": "uint256"
        }
      ],
      "name": "vote",
      "outputs": [],
      "stateMutability": "nonpayable",
      "type": "function"
    },
    {
      "inputs": [
        {
          "internalType": "address",
          "name": "",
          "type": "address"
        }
      ],
      "name": "voters",
      "outputs": [
        {
          "internalType": "bool",
          "name": "hasVoted",
          "type": "bool"
        },
        {
          "internalType": "uint256",
          "name": "vote",
          "type": "uint256"
        },
        {
          "internalType": "bool",
          "name": "exists",
          "type": "bool"
        }
      ],
      "stateMutability": "view",
      "type": "function"
    }
  ],
  "bytecode": "0x608060405260008060146101000a81548160ff021916908315150217905550600060025534801561002f57600080fd5b5060405161154038038061154083398181016040528101906100519190610303565b336000806101000a81548173ffffffffffffffffffffffffffffffffffffffff021916908373ffffffffffffffffffffffffffffffffffffffff1602179055508060018190555060005b825181101561012257600460405180604001604052808584815181106100c4576100c361035f565b5b602002602001015181526020016000815250908060018154018082558091505060019003906000526020600020906002020160009091909190915060008201518160000155602082015181600101555050808060010191505061009b565b50505061038e565b6000604051905090565b600080fd5b600080fd5b600080fd5b6000601f19601f8301169050919050565b7f4e487b7100000000000000000000000000000000000000000000000000000000600052604160045260246000fd5b61018c82610143565b810181811067ffffffffffffffff821117156101ab576101aa610154565b5b80604052505050565b60006101be61012a565b90506101ca8282610183565b919050565b600067ffffffffffffffff8211156101ea576101e9610154565b5b602082029050602081019050919050565b600080fd5b6000819050919050565b61021381610200565b811461021e57600080fd5b50565b6000815190506102308161020a565b92915050565b6000610249610244846101cf565b6101b4565b9050808382526020820190506020840283018581111561026c5761026b6101fb565b5b835b8181101561029557806102818882610221565b84526020840193505060208101905061026e565b5050509392505050565b600082601f8301126102b4576102b361013e565b5b81516102c4848260208601610236565b91505092915050565b6000819050919050565b6102e0816102cd565b81146102eb57600080fd5b50565b6000815190506102fd816102d7565b92915050565b6000806040838503121561031a57610319610134565b5b600083015167ffffffffffffffff81111561033857610337610139565b5b6103448582860161029f565b9250506020610355858286016102ee565b9150509250929050565b7f4e487b7100000000000000000000000000000000000000000000000000000000600052603260045260246000fd5b6111a38061039d6000396000f3fe608060405234801561001057600080fd5b506004361061009e5760003560e01c806388cb9b021161006657806388cb9b021461014a5780639e7b8d6114610168578063a3ec138d14610184578063a7b72294146101b6578063cceb68f5146101c05761009e565b80630121b93f146100a3578063013cf08b146100bf5780634394ba21146100f05780635b01fb391461010e57806387f7b9751461012c575b600080fd5b6100bd60048036038101906100b89190610aab565b6101de565b005b6100d960048036038101906100d49190610aab565b61036e565b6040516100e7929190610b00565b60405180910390f35b6100f86103a2565b6040516101059190610b76565b60405180910390f35b61011661055a565b6040516101239190610bac565b60405180910390f35b6101346105b1565b6040516101419190610c08565b60405180910390f35b6101526105d5565b60405161015f9190610bac565b60405180910390f35b610182600480360381019061017d9190610c4f565b61062c565b005b61019e60048036038101906101999190610c4f565b610872565b6040516101ad93929190610c7c565b60405180910390f35b6101be6108b6565b005b6101c8610970565b6040516101d59190610d91565b60405180910390f35b60011515600060149054906101000a900460ff16151514610234576040517f08c379a000000000000000000000000000000000000000000000000000000000815260040161022b90610e10565b60405180910390fd5b33600360008273ffffffffffffffffffffffffffffffffffffffff1673ffffffffffffffffffffffffffffffffffffffff16815260200190815260200160002060000160009054906101000a900460ff16156102c5576040517f08c379a00000000000000000000000000000000000000000000000000000000081526004016102bc90610e7c565b60405180910390fd5b6000600360003373ffffffffffffffffffffffffffffffffffffffff1673ffffffffffffffffffffffffffffffffffffffff168152602001908152602001600020905060018160000160006101000a81548160ff0219169083151502179055508281600101819055506004838154811061034257610341610e9c565b5b9060005260206000209060020201600101600081548092919061036490610efa565b9190505550505050565b6004818154811061037e57600080fd5b90600052602060002090600202016000915090508060000154908060010154905082565b6103aa610a53565b6000600480549050116103f2576040517f08c379a00000000000000000000000000000000000000000000000000000000081526004016103e990610f8e565b60405180910390fd5b60008060005b60048054905081101561048a57826004828154811061041a57610419610e9c565b5b906000526020600020906002020160010154111561047d576004818154811061044657610445610e9c565b5b9060005260206000209060020201604051806040016040529081600082015481526020016001820154815250509350836020015192505b80806001019150506103f8565b5060005b6004805490508110156105135782600482815481106104b0576104af610e9c565b5b9060005260206000209060020201600101541480156104f857508360000151600482815481106104e3576104e2610e9c565b5b90600052602060002090600202016000015414155b156105065760019150610513565b808060010191505061048e565b508015610555576040517f08c379a000000000000000000000000000000000000000000000000000000000815260040161054c90610ffa565b60405180910390fd5b505090565b6000600360003373ffffffffffffffffffffffffffffffffffffffff1673ffffffffffffffffffffffffffffffffffffffff16815260200190815260200160002060020160009054906101000a900460ff16905090565b60008054906101000a900473ffffffffffffffffffffffffffffffffffffffff1681565b6000600360003373ffffffffffffffffffffffffffffffffffffffff1673ffffffffffffffffffffffffffffffffffffffff16815260200190815260200160002060000160009054906101000a900460ff16905090565b60008054906101000a900473ffffffffffffffffffffffffffffffffffffffff1673ffffffffffffffffffffffffffffffffffffffff163373ffffffffffffffffffffffffffffffffffffffff16146106ba576040517f08c379a00000000000000000000000000000000000000000000000000000000081526004016106b19061108c565b60405180910390fd5b60011515600060149054906101000a900460ff16151514610710576040517f08c379a000000000000000000000000000000000000000000000000000000000815260040161070790610e10565b60405180910390fd5b80600360008273ffffffffffffffffffffffffffffffffffffffff1673ffffffffffffffffffffffffffffffffffffffff16815260200190815260200160002060000160009054906101000a900460ff16156107a1576040517f08c379a000000000000000000000000000000000000000000000000000000000815260040161079890610e7c565b60405180910390fd5b600154600254116107e7576040517f08c379a00000000000000000000000000000000000000000000000000000000081526004016107de9061111e565b60405180910390fd5b6000600360008473ffffffffffffffffffffffffffffffffffffffff1673ffffffffffffffffffffffffffffffffffffffff16815260200190815260200160002060000160006101000a81548160ff0219169083151502179055506002600081548092919061085590610efa565b91905055506001546002540361086e5761086d6108b6565b5b5050565b60036020528060005260406000206000915090508060000160009054906101000a900460ff16908060010154908060020160009054906101000a900460ff16905083565b60008054906101000a900473ffffffffffffffffffffffffffffffffffffffff1673ffffffffffffffffffffffffffffffffffffffff163373ffffffffffffffffffffffffffffffffffffffff1614610944576040517f08c379a000000000000000000000000000000000000000000000000000000000815260040161093b9061108c565b60405180910390fd5b600060149054906101000a900460ff1615600060146101000a81548160ff021916908315150217905550565b6060600060048054905067ffffffffffffffff8111156109935761099261113e565b5b6040519080825280602002602001820160405280156109cc57816020015b6109b9610a53565b8152602001906001900390816109b15790505b50905060005b600480549050811015610a4b57600481815481106109f3576109f2610e9c565b5b906000526020600020906002020160405180604001604052908160008201548152602001600182015481525050828281518110610a3357610a32610e9c565b5b602002602001018190525080806001019150506109d2565b508091505090565b604051806040016040528060008019168152602001600081525090565b600080fd5b6000819050919050565b610a8881610a75565b8114610a9357600080fd5b50565b600081359050610aa581610a7f565b92915050565b600060208284031215610ac157610ac0610a70565b5b6000610acf84828501610a96565b91505092915050565b6000819050919050565b610aeb81610ad8565b82525050565b610afa81610a75565b82525050565b6000604082019050610b156000830185610ae2565b610b226020830184610af1565b9392505050565b610b3281610ad8565b82525050565b610b4181610a75565b82525050565b604082016000820151610b5d6000850182610b29565b506020820151610b706020850182610b38565b50505050565b6000604082019050610b8b6000830184610b47565b92915050565b60008115159050919050565b610ba681610b91565b82525050565b6000602082019050610bc16000830184610b9d565b92915050565b600073ffffffffffffffffffffffffffffffffffffffff82169050919050565b6000610bf282610bc7565b9050919050565b610c0281610be7565b82525050565b6000602082019050610c1d6000830184610bf9565b92915050565b610c2c81610be7565b8114610c3757600080fd5b50565b600081359050610c4981610c23565b92915050565b600060208284031215610c6557610c64610a70565b5b6000610c7384828501610c3a565b91505092915050565b6000606082019050610c916000830186610b9d565b610c9e6020830185610af1565b610cab6040830184610b9d565b949350505050565b600081519050919050565b600082825260208201905092915050565b6000819050602082019050919050565b604082016000820151610cf56000850182610b29565b506020820151610d086020850182610b38565b50505050565b6000610d1a8383610cdf565b60408301905092915050565b6000602082019050919050565b6000610d3e82610cb3565b610d488185610cbe565b9350610d5383610ccf565b8060005b83811015610d84578151610d6b8882610d0e565b9750610d7683610d26565b925050600181019050610d57565b5085935050505092915050565b60006020820190508181036000830152610dab8184610d33565b905092915050565b600082825260208201905092915050565b7f5468652062616c6c6f74206973206e6f742063757272656e746c79206f70656e600082015250565b6000610dfa602083610db3565b9150610e0582610dc4565b602082019050919050565b60006020820190508181036000830152610e2981610ded565b9050919050565b7f54686520766f7465722068617320616c726561647920766f7465642e00000000600082015250565b6000610e66601c83610db3565b9150610e7182610e30565b602082019050919050565b60006020820190508181036000830152610e9581610e59565b9050919050565b7f4e487b7100000000000000000000000000000000000000000000000000000000600052603260045260246000fd5b7f4e487b7100000000000000000000000000000000000000000000000000000000600052601160045260246000fd5b6000610f0582610a75565b91507fffffffffffffffffffffffffffffffffffffffffffffffffffffffffffffffff8203610f3757610f36610ecb565b5b600182019050919050565b7f4e6f2070726f706f73616c7320617661696c61626c652e000000000000000000600082015250565b6000610f78601783610db3565b9150610f8382610f42565b602082019050919050565b60006020820190508181036000830152610fa781610f6b565b9050919050565b7f546865726520697320616e20657820616571756f2e0000000000000000000000600082015250565b6000610fe4601583610db3565b9150610fef82610fae565b602082019050919050565b6000602082019050818103600083015261101381610fd7565b9050919050565b7f4f6e6c79207468652063686169726d616e2063616e206578656375746520746860008201527f697320616374696f6e0000000000000000000000000000000000000000000000602082015250565b6000611076602983610db3565b91506110818261101a565b604082019050919050565b600060208201905081810360008301526110a581611069565b9050919050565b7f4d6178696d756d206e756d626572206f6620766f74657273206973207265616360008201527f6865642e00000000000000000000000000000000000000000000000000000000602082015250565b6000611108602483610db3565b9150611113826110ac565b604082019050919050565b60006020820190508181036000830152611137816110fb565b9050919050565b7f4e487b7100000000000000000000000000000000000000000000000000000000600052604160045260246000fdfea26469706673582212208d0ffc9148ff26987c33a9e5c7d8574c6021842fd023e99ff649961dcf60406d64736f6c634300081c0033",
  "linkReferences": {},
  "deployedLinkReferences": {}
}